{
  "contractName": "Balance",
  "abi": [
    {
      "constant": true,
      "inputs": [
        {
          "internalType": "address",
          "name": "_address",
          "type": "address"
        }
      ],
      "name": "getAddressBalance",
      "outputs": [
        {
          "internalType": "uint256",
          "name": "",
          "type": "uint256"
        }
      ],
      "payable": false,
      "stateMutability": "view",
      "type": "function"
    }
  ],
  "bytecode": "0x608060405234801561001057600080fd5b5060d88061001f6000396000f3fe6080604052348015600f57600080fd5b506004361060285760003560e01c80633504672214602d575b600080fd5b606c60048036036020811015604157600080fd5b81019080803573ffffffffffffffffffffffffffffffffffffffff1690602001909291905050506082565b6040518082815260200191505060405180910390f35b60008173ffffffffffffffffffffffffffffffffffffffff1631905091905056fea265627a7a7231582051471c6f67b2d7ca4be3915ec791f528b3f58a7b6ee907cd8708713b82d7ce3064736f6c63430005100032",
  "source": "pragma solidity >=0.4.22 <0.8.20;\r\n\r\ncontract Balance {\r\n    // Function to get the balance of a specific address\r\n    function getAddressBalance(address _address) public view returns (uint) {\r\n        return _address.balance;\r\n    }\r\n\r\n}\r\n",
  "sourcePath": "E:\\Github\\blockchain-project\\dapp\\contracts\\Balance.sol",
  "compiler": {
    "name": "solc",
    "version": "0.5.16+commit.9c3226ce.Emscripten.clang"
  },
  "schemaVersion": "3.4.16",
  "updatedAt": "2024-04-25T07:20:25.785Z",
  "networkType": "ethereum",
  "devdoc": {
    "methods": {}
  },
  "userdoc": {
    "methods": {}
  }
}