{
  "contractName": "Balance",
  "abi": [
    {
      "inputs": [],
      "name": "getUserBalance",
      "outputs": [
        {
          "internalType": "uint256",
          "name": "",
          "type": "uint256"
        }
      ],
      "stateMutability": "view",
      "type": "function"
    }
  ],
  "bytecode": "0x6080604052348015600f57600080fd5b50607780601d6000396000f3fe6080604052348015600f57600080fd5b506004361060285760003560e01c8063b7013dc114602d575b600080fd5b333160405190815260200160405180910390f3fea2646970667358221220b26f47dc11a831820c14d8cdd0e2800e91fc96cdfcff2c13386e488d619b09d764736f6c634300080d0033",
  "immutableReferences": {},
  "source": "pragma solidity >=0.4.22 <= 0.8.25;\r\n\r\ncontract Balance {\r\n    // Function to get the balance of a specific address\r\n    function getUserBalance() public view returns (uint) {\r\n        return msg.sender.balance;\r\n    }\r\n\r\n\r\n\r\n\r\n}\r\n",
  "sourcePath": "E:\\Github\\blockchain-project\\dapp\\contracts\\Balance.sol",
  "compiler": {
    "name": "solc",
    "version": "0.8.13+commit.abaa5c0e.Emscripten.clang"
  },
  "schemaVersion": "3.4.16",
  "updatedAt": "2024-04-28T11:08:39.215Z",
  "devdoc": {
    "kind": "dev",
    "methods": {},
    "version": 1
  },
  "userdoc": {
    "kind": "user",
    "methods": {},
    "version": 1
  }
}