{
  "contractName": "Kickstarter",
  "abi": [
    {
      "anonymous": false,
      "inputs": [
        {
          "indexed": false,
          "internalType": "uint256",
          "name": "projectId",
          "type": "uint256"
        },
        {
          "indexed": false,
          "internalType": "address",
          "name": "owner",
          "type": "address"
        },
        {
          "indexed": false,
          "internalType": "uint256",
          "name": "targetAmount",
          "type": "uint256"
        },
        {
          "indexed": false,
          "internalType": "uint256",
          "name": "deadline",
          "type": "uint256"
        }
      ],
      "name": "ProjectCreated",
      "type": "event"
    },
    {
      "anonymous": false,
      "inputs": [
        {
          "indexed": false,
          "internalType": "uint256",
          "name": "projectId",
          "type": "uint256"
        }
      ],
      "name": "ProjectRemoved",
      "type": "event"
    },
    {
      "anonymous": false,
      "inputs": [
        {
          "indexed": false,
          "internalType": "address",
          "name": "contractAddress",
          "type": "address"
        }
      ],
      "name": "contractEvent",
      "type": "event"
    },
    {
      "anonymous": false,
      "inputs": [
        {
          "indexed": false,
          "internalType": "uint256",
          "name": "amount",
          "type": "uint256"
        }
      ],
      "name": "contributedEvent",
      "type": "event"
    },
    {
      "anonymous": false,
      "inputs": [
        {
          "indexed": false,
          "internalType": "address",
          "name": "sender",
          "type": "address"
        }
      ],
      "name": "senderEvent",
      "type": "event"
    },
    {
      "inputs": [],
      "name": "numProjects",
      "outputs": [
        {
          "internalType": "uint256",
          "name": "",
          "type": "uint256"
        }
      ],
      "stateMutability": "view",
      "type": "function",
      "constant": true
    },
    {
      "inputs": [
        {
          "internalType": "uint256",
          "name": "",
          "type": "uint256"
        }
      ],
      "name": "projects",
      "outputs": [
        {
          "internalType": "address",
          "name": "owner",
          "type": "address"
        },
        {
          "internalType": "uint256",
          "name": "targetAmount",
          "type": "uint256"
        },
        {
          "internalType": "uint256",
          "name": "currentAmount",
          "type": "uint256"
        },
        {
          "internalType": "uint256",
          "name": "deadline",
          "type": "uint256"
        },
        {
          "internalType": "bool",
          "name": "funded",
          "type": "bool"
        }
      ],
      "stateMutability": "view",
      "type": "function",
      "constant": true
    },
    {
      "inputs": [
        {
          "internalType": "uint256",
          "name": "projectId",
          "type": "uint256"
        }
      ],
      "name": "getCurrentAmount",
      "outputs": [
        {
          "internalType": "uint256",
          "name": "",
          "type": "uint256"
        }
      ],
      "stateMutability": "view",
      "type": "function",
      "constant": true
    },
    {
      "inputs": [
        {
          "internalType": "uint256",
          "name": "_targetAmount",
          "type": "uint256"
        },
        {
          "internalType": "uint256",
          "name": "_deadline",
          "type": "uint256"
        }
      ],
      "name": "createProject",
      "outputs": [],
      "stateMutability": "nonpayable",
      "type": "function"
    },
    {
      "inputs": [
        {
          "internalType": "uint256",
          "name": "_projectId",
          "type": "uint256"
        }
      ],
      "name": "contribute",
      "outputs": [],
      "stateMutability": "payable",
      "type": "function",
      "payable": true
    },
    {
      "inputs": [
        {
          "internalType": "uint256",
          "name": "_projectId",
          "type": "uint256"
        }
      ],
      "name": "withdrawFunds",
      "outputs": [],
      "stateMutability": "nonpayable",
      "type": "function"
    },
    {
      "inputs": [
        {
          "internalType": "uint256",
          "name": "_projectId",
          "type": "uint256"
        }
      ],
      "name": "withdrawContribution",
      "outputs": [],
      "stateMutability": "nonpayable",
      "type": "function"
    }
  ],
  "bytecode": "0x608060405234801561001057600080fd5b506107b7806100206000396000f3fe6080604052600436106100605760003560e01c806302da667b14610065578063107046bd14610087578063155dd5ee1461011757806356e78dc3146101375780635a067baa14610175578063c1cbbca71461018b578063d25090ff1461019e575b600080fd5b34801561007157600080fd5b50610085610080366004610673565b6101be565b005b34801561009357600080fd5b506100de6100a2366004610695565b600060208190529081526040902080546001820154600283015460038401546004909401546001600160a01b0390931693919290919060ff1685565b604080516001600160a01b03909616865260208601949094529284019190915260608301521515608082015260a0015b60405180910390f35b34801561012357600080fd5b50610085610132366004610695565b6102e3565b34801561014357600080fd5b50610167610152366004610695565b60009081526020819052604090206002015490565b60405190815260200161010e565b34801561018157600080fd5b5061016760015481565b610085610199366004610695565b61040e565b3480156101aa57600080fd5b506100856101b9366004610695565b610561565b7fd5be0c2fbbd0226f65f845f4b3231e0c7e0a03650737c9c4787fff3253411c39336040516101ed91906106ae565b60405180910390a17fd21cec5f1e63ce9f9a7d68e5c7e2166268d257542f663f3e26246ae0190da0d83060405161022491906106ae565b60405180910390a1600180546000918261023d836106d8565b90915550600081815260208190526040902080546001600160a01b031916331781556001810185905590915061027383426106f1565b600382015560048101805460ff191690557fb5d890eb2df709d2f732ed81f328b444e49c1618ed8d64c53c0a040ec4040e1e8233866102b287426106f1565b604080519485526001600160a01b03909316602085015291830152606082015260800160405180910390a150505050565b600081815260208190526040902080546001600160a01b0316331461035d5760405162461bcd60e51b815260206004820152602560248201527f4f6e6c792070726f6a656374206f776e65722063616e2077697468647261772060448201526466756e647360d81b60648201526084015b60405180910390fd5b600481015460ff166103aa5760405162461bcd60e51b8152602060048201526016602482015275141c9bda9958dd081b9bdd081e595d08199d5b99195960521b6044820152606401610354565b80600301544210156103ce5760405162461bcd60e51b815260040161035490610709565b60028101546040513391829181156108fc0291906000818181858888f19350505050158015610401573d6000803e3d6000fd5b5050600060029091015550565b6000818152602081905260409020600381015442106104695760405162461bcd60e51b8152602060048201526017602482015276141c9bda9958dd08191958591b1a5b99481c185cdcd959604a1b6044820152606401610354565b600481015460ff161561048e5760405162461bcd60e51b81526004016103549061073a565b600034116104e95760405162461bcd60e51b815260206004820152602260248201527f4e6f2065746865722073656e74207769746820746865207472616e736163746960448201526137b760f11b6064820152608401610354565b3360009081526005820160205260408120805434929061050a9084906106f1565b925050819055503481600201600082825461052591906106f1565b90915550506040513481527f788c0b56099037924eba17205dc289262f311e58ff8cd25cf013b72851c955209060200160405180910390a15050565b600081815260208190526040902060038101544210156105935760405162461bcd60e51b815260040161035490610709565b600481015460ff16156105b85760405162461bcd60e51b81526004016103549061073a565b336000908152600582016020526040902054806106155760405162461bcd60e51b815260206004820152601b60248201527a4e6f20636f6e747269627574696f6e20746f20776974686472617760281b6044820152606401610354565b604051339082156108fc029083906000818181858888f19350505050158015610642573d6000803e3d6000fd5b5080826002016000828254610657919061076a565b9091555050336000908152600590920160205250604081205550565b6000806040838503121561068657600080fd5b50508035926020909101359150565b6000602082840312156106a757600080fd5b5035919050565b6001600160a01b0391909116815260200190565b634e487b7160e01b600052601160045260246000fd5b6000600182016106ea576106ea6106c2565b5060010190565b60008219821115610704576107046106c2565b500190565b602080825260179082015276111958591b1a5b99481b9bdd081e595d081c185cdcd959604a1b604082015260600190565b602080825260169082015275141c9bda9958dd08185b1c9958591e48199d5b99195960521b604082015260600190565b60008282101561077c5761077c6106c2565b50039056fea26469706673582212203004472fda254e3ec8a3fc2b0fd4f701b58468cca3422b33c74005ed424991ed64736f6c634300080d0033",
  "immutableReferences": {},
  "source": "pragma solidity >=0.4.22 <= 0.8.25;\r\n\r\ncontract Kickstarter {\r\n    struct Project {\r\n        address owner;\r\n        uint targetAmount;\r\n        uint currentAmount;\r\n        uint deadline;\r\n        bool funded;\r\n        mapping(address => uint) contributions;\r\n    }\r\n    \r\n    mapping(uint => Project) public projects;\r\n    uint public numProjects;\r\n    \r\n    event ProjectCreated(uint projectId, address owner, uint targetAmount, uint deadline);\r\n    event ProjectRemoved(uint projectId);\r\n    event contributedEvent(uint amount);\r\n    event senderEvent(address sender);\r\n    event contractEvent(address contractAddress);\r\n    \r\n    function getCurrentAmount(uint projectId) public view returns (uint) {\r\n        return projects[projectId].currentAmount;\r\n    }\r\n\r\n\r\n    function createProject(uint _targetAmount, uint _deadline) public {\r\n        emit senderEvent(msg.sender);\r\n        emit contractEvent(address(this));\r\n        uint projectId = numProjects++;\r\n        Project storage newProject = projects[projectId];\r\n        newProject.owner = msg.sender;\r\n        newProject.targetAmount = _targetAmount;\r\n        newProject.deadline = block.timestamp + _deadline;\r\n        newProject.funded = false;\r\n        emit ProjectCreated(projectId, msg.sender, _targetAmount, block.timestamp + _deadline);\r\n    }\r\n    \r\n    function contribute(uint _projectId) public payable {\r\n        // Send balance from sender to Contract\r\n        Project storage project = projects[_projectId];\r\n        require(block.timestamp < project.deadline, \"Project deadline passed\");\r\n        require(!project.funded, \"Project already funded\");\r\n        \r\n\r\n        // Ensure some ether is sent with the transaction\r\n        require(msg.value > 0, \"No ether sent with the transaction\");\r\n\r\n\r\n        project.contributions[msg.sender] += msg.value;\r\n        project.currentAmount += msg.value;\r\n        emit contributedEvent(msg.value);\r\n\r\n    }\r\n    \r\n    function withdrawFunds(uint _projectId) public {\r\n        // Send Balance from contract to project owner\r\n        Project storage project = projects[_projectId];\r\n        require(project.owner == msg.sender, \"Only project owner can withdraw funds\");\r\n        require(project.funded, \"Project not yet funded\");\r\n        require(block.timestamp >= project.deadline, \"Deadline not yet passed\");\r\n        \r\n        address payable owner = payable(msg.sender);\r\n        owner.transfer(project.currentAmount);\r\n        project.currentAmount = 0;\r\n\r\n        \r\n    }\r\n    \r\n    function withdrawContribution(uint _projectId) public {\r\n        // Send balance from contract to sender\r\n\r\n        Project storage project = projects[_projectId];\r\n        require(block.timestamp >= project.deadline, \"Deadline not yet passed\");\r\n        require(!project.funded, \"Project already funded\");\r\n        \r\n        uint amount = project.contributions[msg.sender];\r\n        require(amount > 0, \"No contribution to withdraw\");\r\n        \r\n        payable(msg.sender).transfer(amount);\r\n\r\n        project.currentAmount -= amount;\r\n        project.contributions[msg.sender] = 0;\r\n    }\r\n}\r\n",
  "sourcePath": "E:\\Github\\blockchain-project\\dapp\\contracts\\Kickstarter.sol",
  "compiler": {
    "name": "solc",
    "version": "0.8.13+commit.abaa5c0e.Emscripten.clang"
  },
  "schemaVersion": "3.4.16",
  "updatedAt": "2024-04-28T15:26:45.027Z",
  "networkType": "ethereum",
  "devdoc": {
    "kind": "dev",
    "methods": {},
    "version": 1
  },
  "userdoc": {
    "kind": "user",
    "methods": {},
    "version": 1
  }
}