{
  "contractName": "Kickstarter",
  "abi": [
    {
      "anonymous": false,
      "inputs": [
        {
          "indexed": true,
          "internalType": "address",
          "name": "recipient",
          "type": "address"
        },
        {
          "indexed": false,
          "internalType": "uint256",
          "name": "amount",
          "type": "uint256"
        }
      ],
      "name": "FundsWithdrawn",
      "type": "event"
    },
    {
      "anonymous": false,
      "inputs": [
        {
          "indexed": false,
          "internalType": "uint256",
          "name": "projectId",
          "type": "uint256"
        },
        {
          "indexed": false,
          "internalType": "address",
          "name": "owner",
          "type": "address"
        },
        {
          "indexed": false,
          "internalType": "uint256",
          "name": "targetAmount",
          "type": "uint256"
        },
        {
          "indexed": false,
          "internalType": "uint256",
          "name": "deadline",
          "type": "uint256"
        },
        {
          "indexed": false,
          "internalType": "string",
          "name": "title",
          "type": "string"
        }
      ],
      "name": "ProjectCreated",
      "type": "event"
    },
    {
      "anonymous": false,
      "inputs": [
        {
          "indexed": false,
          "internalType": "uint256",
          "name": "projectId",
          "type": "uint256"
        }
      ],
      "name": "ProjectRemoved",
      "type": "event"
    },
    {
      "anonymous": false,
      "inputs": [
        {
          "indexed": false,
          "internalType": "address",
          "name": "contractAddress",
          "type": "address"
        }
      ],
      "name": "contractEvent",
      "type": "event"
    },
    {
      "anonymous": false,
      "inputs": [
        {
          "indexed": false,
          "internalType": "uint256",
          "name": "amount",
          "type": "uint256"
        }
      ],
      "name": "contributedEvent",
      "type": "event"
    },
    {
      "anonymous": false,
      "inputs": [
        {
          "indexed": false,
          "internalType": "address",
          "name": "sender",
          "type": "address"
        }
      ],
      "name": "senderEvent",
      "type": "event"
    },
    {
      "inputs": [],
      "name": "numProjects",
      "outputs": [
        {
          "internalType": "uint256",
          "name": "",
          "type": "uint256"
        }
      ],
      "stateMutability": "view",
      "type": "function",
      "constant": true
    },
    {
      "inputs": [
        {
          "internalType": "uint256",
          "name": "",
          "type": "uint256"
        }
      ],
      "name": "projects",
      "outputs": [
        {
          "internalType": "address",
          "name": "owner",
          "type": "address"
        },
        {
          "internalType": "uint256",
          "name": "targetAmount",
          "type": "uint256"
        },
        {
          "internalType": "uint256",
          "name": "currentAmount",
          "type": "uint256"
        },
        {
          "internalType": "uint256",
          "name": "deadline",
          "type": "uint256"
        },
        {
          "internalType": "bool",
          "name": "funded",
          "type": "bool"
        },
        {
          "internalType": "string",
          "name": "title",
          "type": "string"
        }
      ],
      "stateMutability": "view",
      "type": "function",
      "constant": true
    },
    {
      "inputs": [
        {
          "internalType": "uint256",
          "name": "projectId",
          "type": "uint256"
        }
      ],
      "name": "getCurrentAmount",
      "outputs": [
        {
          "internalType": "uint256",
          "name": "",
          "type": "uint256"
        }
      ],
      "stateMutability": "view",
      "type": "function",
      "constant": true
    },
    {
      "inputs": [
        {
          "internalType": "uint256",
          "name": "_targetAmount",
          "type": "uint256"
        },
        {
          "internalType": "uint256",
          "name": "_deadline",
          "type": "uint256"
        },
        {
          "internalType": "string",
          "name": "_title",
          "type": "string"
        }
      ],
      "name": "createProject",
      "outputs": [],
      "stateMutability": "nonpayable",
      "type": "function"
    },
    {
      "inputs": [
        {
          "internalType": "uint256",
          "name": "_projectId",
          "type": "uint256"
        }
      ],
      "name": "contribute",
      "outputs": [],
      "stateMutability": "payable",
      "type": "function",
      "payable": true
    },
    {
      "inputs": [
        {
          "internalType": "uint256",
          "name": "_projectId",
          "type": "uint256"
        }
      ],
      "name": "withdrawFunds",
      "outputs": [],
      "stateMutability": "nonpayable",
      "type": "function"
    },
    {
      "inputs": [
        {
          "internalType": "uint256",
          "name": "_projectId",
          "type": "uint256"
        }
      ],
      "name": "withdrawContribution",
      "outputs": [],
      "stateMutability": "nonpayable",
      "type": "function"
    }
  ],
  "bytecode": "0x608060405234801561001057600080fd5b50610ac9806100206000396000f3fe6080604052600436106100605760003560e01c8063107046bd14610065578063155dd5ee146100a057806320f7a505146100c257806356e78dc3146100e25780635a067baa14610120578063c1cbbca714610136578063d25090ff14610149575b600080fd5b34801561007157600080fd5b506100856100803660046107f3565b610169565b60405161009796959493929190610859565b60405180910390f35b3480156100ac57600080fd5b506100c06100bb3660046107f3565b610238565b005b3480156100ce57600080fd5b506100c06100dd3660046108b6565b610376565b3480156100ee57600080fd5b506101126100fd3660046107f3565b60009081526020819052604090206002015490565b604051908152602001610097565b34801561012c57600080fd5b5061011260015481565b6100c06101443660046107f3565b6104a1565b34801561015557600080fd5b506100c06101643660046107f3565b61061e565b6000602081905290815260409020805460018201546002830154600384015460048501546005860180546001600160a01b039096169694959394929360ff90921692916101b590610979565b80601f01602080910402602001604051908101604052809291908181526020018280546101e190610979565b801561022e5780601f106102035761010080835404028352916020019161022e565b820191906000526020600020905b81548152906001019060200180831161021157829003601f168201915b5050505050905086565b600081815260208190526040902080546001600160a01b031633146102b25760405162461bcd60e51b815260206004820152602560248201527f4f6e6c792070726f6a656374206f776e65722063616e2077697468647261772060448201526466756e647360d81b60648201526084015b60405180910390fd5b600481015460ff166102ff5760405162461bcd60e51b8152602060048201526016602482015275141c9bda9958dd081b9bdd081e595d08199d5b99195960521b60448201526064016102a9565b60028101546040513391829181156108fc0291906000818181858888f19350505050158015610332573d6000803e3d6000fd5b5060006002830181905560405190815233907feaff4b37086828766ad3268786972c0cd24259d4c87a80f9d3963a3c3d999b0d9060200160405180910390a2505050565b7fd5be0c2fbbd0226f65f845f4b3231e0c7e0a03650737c9c4787fff3253411c39336040516103a591906109b3565b60405180910390a17fd21cec5f1e63ce9f9a7d68e5c7e2166268d257542f663f3e26246ae0190da0d8306040516103dc91906109b3565b60405180910390a160018054600091826103f5836109dd565b90915550600081815260208190526040902080546001600160a01b031916331781556001810186905590915061042b84426109f6565b600382015560048101805460ff191690558251610451906005830190602086019061075a565b507f2683bcb5652f1e01abe86a961922fdbe9ea47e4dd2595b28ad53ee611a19b2ea82338761048088426109f6565b87604051610492959493929190610a0e565b60405180910390a15050505050565b6000818152602081905260409020600381015442106104fc5760405162461bcd60e51b8152602060048201526017602482015276141c9bda9958dd08191958591b1a5b99481c185cdcd959604a1b60448201526064016102a9565b600481015460ff16156105215760405162461bcd60e51b81526004016102a990610a4c565b6000341161057c5760405162461bcd60e51b815260206004820152602260248201527f4e6f2065746865722073656e74207769746820746865207472616e736163746960448201526137b760f11b60648201526084016102a9565b806001015434826002015461059191906109f6565b106105a65760048101805460ff191660011790555b336000908152600682016020526040812080543492906105c79084906109f6565b92505081905550348160020160008282546105e291906109f6565b90915550506040513481527f788c0b56099037924eba17205dc289262f311e58ff8cd25cf013b72851c955209060200160405180910390a15050565b6000818152602081905260409020600381015442101561067a5760405162461bcd60e51b8152602060048201526017602482015276111958591b1a5b99481b9bdd081e595d081c185cdcd959604a1b60448201526064016102a9565b600481015460ff161561069f5760405162461bcd60e51b81526004016102a990610a4c565b336000908152600682016020526040902054806106fc5760405162461bcd60e51b815260206004820152601b60248201527a4e6f20636f6e747269627574696f6e20746f20776974686472617760281b60448201526064016102a9565b604051339082156108fc029083906000818181858888f19350505050158015610729573d6000803e3d6000fd5b508082600201600082825461073e9190610a7c565b9091555050336000908152600690920160205250604081205550565b82805461076690610979565b90600052602060002090601f01602090048101928261078857600085556107ce565b82601f106107a157805160ff19168380011785556107ce565b828001600101855582156107ce579182015b828111156107ce5782518255916020019190600101906107b3565b506107da9291506107de565b5090565b5b808211156107da57600081556001016107df565b60006020828403121561080557600080fd5b5035919050565b6000815180845260005b8181101561083257602081850181015186830182015201610816565b81811115610844576000602083870101525b50601f01601f19169290920160200192915050565b60018060a01b0387168152856020820152846040820152836060820152821515608082015260c060a0820152600061089460c083018461080c565b98975050505050505050565b634e487b7160e01b600052604160045260246000fd5b6000806000606084860312156108cb57600080fd5b833592506020840135915060408401356001600160401b03808211156108f057600080fd5b818601915086601f83011261090457600080fd5b813581811115610916576109166108a0565b604051601f8201601f19908116603f0116810190838211818310171561093e5761093e6108a0565b8160405282815289602084870101111561095757600080fd5b8260208601602083013760006020848301015280955050505050509250925092565b600181811c9082168061098d57607f821691505b6020821081036109ad57634e487b7160e01b600052602260045260246000fd5b50919050565b6001600160a01b0391909116815260200190565b634e487b7160e01b600052601160045260246000fd5b6000600182016109ef576109ef6109c7565b5060010190565b60008219821115610a0957610a096109c7565b500190565b85815260018060a01b038516602082015283604082015282606082015260a060808201526000610a4160a083018461080c565b979650505050505050565b602080825260169082015275141c9bda9958dd08185b1c9958591e48199d5b99195960521b604082015260600190565b600082821015610a8e57610a8e6109c7565b50039056fea2646970667358221220f3062e37f76660e953b0aa32b6cf8b7485b5a99d158df8d858800ca2aa76b4bd64736f6c634300080d0033",
  "immutableReferences": {},
  "source": "pragma solidity >=0.4.22 <= 0.8.25;\r\n\r\ncontract Kickstarter {\r\n    struct Project {\r\n        address owner;\r\n        uint targetAmount;\r\n        uint currentAmount;\r\n        uint deadline;\r\n        bool funded;\r\n        string title;\r\n        mapping(address => uint) contributions;\r\n    }\r\n    \r\n    mapping(uint => Project) public projects;\r\n    uint public numProjects;\r\n    \r\n    event ProjectCreated(uint projectId, address owner, uint targetAmount, uint deadline,string title);\r\n    event ProjectRemoved(uint projectId);\r\n    event contributedEvent(uint amount);\r\n    event senderEvent(address sender);\r\n    event contractEvent(address contractAddress);\r\n    event FundsWithdrawn(address indexed recipient, uint amount);\r\n\r\n    \r\n    function getCurrentAmount(uint projectId) public view returns (uint) {\r\n        return projects[projectId].currentAmount;\r\n    }\r\n\r\n\r\n    function createProject(uint _targetAmount, uint _deadline,string memory _title) public {\r\n        emit senderEvent(msg.sender);\r\n        emit contractEvent(address(this));\r\n        uint projectId = numProjects++;\r\n        Project storage newProject = projects[projectId];\r\n        newProject.owner = msg.sender;\r\n        newProject.targetAmount = _targetAmount;\r\n        newProject.deadline = block.timestamp + _deadline;\r\n        newProject.funded = false;\r\n        newProject.title = _title;\r\n        emit ProjectCreated(projectId, msg.sender, _targetAmount, block.timestamp + _deadline,_title);\r\n    }\r\n    \r\n    function contribute(uint _projectId) public payable {\r\n        // Send balance from sender to Contract\r\n        Project storage project = projects[_projectId];\r\n        require(block.timestamp < project.deadline, \"Project deadline passed\");\r\n        require(!project.funded, \"Project already funded\");\r\n        \r\n\r\n        // Ensure some ether is sent with the transaction\r\n        require(msg.value > 0, \"No ether sent with the transaction\");\r\n\r\n        // Check if the project is funded\r\n        if (project.currentAmount + msg.value >= project.targetAmount) {\r\n            project.funded = true;\r\n        }\r\n\r\n        project.contributions[msg.sender] += msg.value;\r\n        project.currentAmount += msg.value;\r\n        emit contributedEvent(msg.value);\r\n\r\n    }\r\n    \r\n    function withdrawFunds(uint _projectId) public {\r\n        // Send Balance from contract to project owner\r\n        Project storage project = projects[_projectId];\r\n        require(project.owner == msg.sender, \"Only project owner can withdraw funds\");\r\n        require(project.funded, \"Project not yet funded\");\r\n        // require(block.timestamp >= project.deadline, \"Deadline not yet passed\");\r\n        \r\n        address payable owner = payable(msg.sender);\r\n        owner.transfer(project.currentAmount);\r\n        project.currentAmount = 0;\r\n\r\n        emit FundsWithdrawn(msg.sender, project.currentAmount); // Emit the event\r\n\r\n        \r\n    }\r\n    \r\n    function withdrawContribution(uint _projectId) public {\r\n        // Send balance from contract to sender\r\n\r\n        Project storage project = projects[_projectId];\r\n        require(block.timestamp >= project.deadline, \"Deadline not yet passed\");\r\n        require(!project.funded, \"Project already funded\");\r\n        \r\n        uint amount = project.contributions[msg.sender];\r\n        require(amount > 0, \"No contribution to withdraw\");\r\n        \r\n        payable(msg.sender).transfer(amount);\r\n\r\n        project.currentAmount -= amount;\r\n        project.contributions[msg.sender] = 0;\r\n    }\r\n}\r\n",
  "sourcePath": "E:\\Github\\blockchain-project\\dapp\\contracts\\Kickstarter.sol",
  "compiler": {
    "name": "solc",
    "version": "0.8.13+commit.abaa5c0e.Emscripten.clang"
  },
  "schemaVersion": "3.4.16",
  "updatedAt": "2024-05-05T16:57:18.493Z",
  "networkType": "ethereum",
  "devdoc": {
    "kind": "dev",
    "methods": {},
    "version": 1
  },
  "userdoc": {
    "kind": "user",
    "methods": {},
    "version": 1
  }
}